:100000000C9428010C9459010C9459010C94590139
:100010000C9459010C9459010C9459010C945901F8
:100020000C9459010C9459010C9459010C945901E8
:100030000C9459010C9459010C9459010C945901D8
:100040000C9459010C94D2060C9459010C9459014A
:100050000C9459010C9459010C9459010C94FE050F
:100060000C9459010C94C8050C949E050C945901EC
:100070000C9459010C9459010C9459010C94590198
:100080000C94A4060C9459010C9459010C94590138
:100090000C9459010C9459010C9459010C94590178
:1000A0000C9459010C9459010C9476060C94590146
:1000B0000C9459010C9459010C9459010C94480664
:1000C0000C9459010C9459010C9459010C94590148
:1000D0000C9459010C9459010C9459010C94590138
:1000E0000C9459010C9401030C94D8010C94FD025A
:1000F0000C940A030C94E3020C940E030C94B601C6
:100100000C9426030C9434030C9404030C94F50211
:100110000C9414030C9410020C94CA010C947A01F0
:100120000C9418030C941C030C9430030C94DE0202
:100130000C942A030C94A7010C941B070C94F9024D
:100140000C945D020C94220300000A0B02090C0DB2
:100150000E0807030401000000000000000000007A
:10016000000000000000000000000000000000008F
:10017000000000001211100000000000000000004C
:10018000000000000000000000000000000000006F
:100190002200250028002B002E003100340002012F
:1001A0000000050108010B010000210024002700C8
:1001B0002A002D0030003300010100000401070176
:1001C0000A010505050507050808080802020202DC
:1001D0000A0A0808040404040101010101010101E3
:1001E0000303030303030303040707070C0C0C0CAE
:1001F0000C0C0C0C02020202060606060606060697
:100200000B0B0B0B0B0B0B0B010210202008081023
:100210002040102040800201020108040201010276
:10022000040810204080804020100804020180044F
:1002300002018040201008040201080402010102AA
:1002400004081020408001020408102040801B0791
:1002500011241FBECFEFD1E2DEBFCDBF00E00CBF47
:1002600012E0A0E0B2E0E6EBFAE100E00BBF02C072
:1002700007900D92A233B107D9F723E0A2E3B2E0D1
:1002800001C01D92A038B207E1F711E0C8E2D1E049
:1002900000E006C021970109802FFE010E943D0D5C
:1002A000C732D10780E00807A9F70E9453070C94D2
:1002B000590D0C94000090E0FC01E85FFD4F249183
:1002C0008E539E4FFC018491882399F090E0880F13
:1002D000991FFC01E855FE4FA591B491FC01E2572E
:1002E000FE4F859194918FB7F894EC91E22BEC93AB
:1002F0008FBF0895AF92BF92CF92DF92EF92FF929D
:100300000F931F93CF93DF936C017B018B01040F3D
:10031000151FEB015E01AE18BF08C017D10759F0D9
:100320006991D601ED91FC910190F081E02DC6011B
:100330001995892B79F7C501DF91CF911F910F9105
:10034000FF90EF90DF90CF90BF90AF900895FC01A9
:10035000538D448D252F30E0842F90E0821B930B2A
:10036000541710F0CF96089501970895FC01918DD0
:10037000828D981761F0A28DAE0FBF2FB11D5D96D3
:100380008C91928D9F5F9F73928F90E008958FEF75
:100390009FEF0895FC01918D828D981731F0828D29
:1003A000E80FF11D858D90E008958FEF9FEF089580
:1003B000FC01918D228D892F90E0805C9F4F821BE4
:1003C00091098F73992708958AED92E00E94D801D0
:1003D00021E0892B09F420E0822F0895FC01A48DEF
:1003E000A80FB92FB11DA35ABF4F2C91848D90E057
:1003F00001968F739927848FA689B7892C93A0893A
:10040000B1898C91837080648C93938D848D9813C3
:1004100006C00288F389E02D80818F7D8083089556
:10042000EF92FF920F931F93CF93DF93EC0181E044
:10043000888F9B8D8C8D98131AC0E889F9898081EB
:1004400085FF15C09FB7F894EE89FF896083E8891E
:10045000F98980818370806480839FBF81E090E010
:10046000DF91CF911F910F91FF90EF900895F62E9D
:100470000B8D10E00F5F1F4F0F731127E02E8C8D37
:100480008E110CC00FB607FCFACFE889F98980817C
:1004900085FFF5CFCE010E94EE01F1CFEB8DEC0F81
:1004A000FD2FF11DE35AFF4FF0829FB7F8940B8F99
:1004B000EA89FB8980818062CFCFCF93DF93EC0103
:1004C000888D8823B9F0AA89BB89E889F9898C913C
:1004D00085FD03C0808186FD0DC00FB607FCF7CFF8
:1004E0008C9185FFF2CF808185FFEDCFCE010E94F8
:1004F000EE01E9CFDF91CF91089580E090E0892B64
:1005000029F00E94E40181110E94000080E090E047
:10051000892B49F080E090E0892B29F00E940000AF
:1005200081110E94000080E090E0892B49F080E07A
:1005300090E0892B29F00E94000081110E940000A8
:1005400080E090E0892B49F080E090E0892B29F051
:100550000E94000081110C9400000895282F30E0C3
:10056000F901E85BFE4F9491F901E85FFD4F44917A
:100570002E533E4FF9012491222309F435C09923CB
:1005800011F191509231F8F4E92FF0E08827E4530B
:10059000FD4F8F4F0C943D0DFD020103DE02F5026D
:1005A000F902E30204030A030E03140318031C03F5
:1005B00022032603E3022A033003340380918000E0
:1005C0008F7780938000E22FF0E0EE0FFF1FE2575D
:1005D000FE4FA591B4918FB7F894EC91611148C08A
:1005E00040954E234C938FBF0895809180008F7D5E
:1005F000E8CF80918000877FE4CF84B58F7784BD7A
:10060000E2CF84B58F7DFBCF8091B0008F77809350
:10061000B000D9CF8091B0008F7DF9CF809190004C
:100620008F7780939000CFCF809190008F7DF9CF0E
:1006300080919000877FF5CF8091A0008F77809385
:10064000A000C1CF8091A0008F7DF9CF8091A00044
:10065000877FF5CF809120018F7780932001B3CFE2
:10066000809120018F7DF9CF80912001877FF5CF88
:100670004E2BB8CF3FB7F8948091CC029091CD0229
:10068000A091CE02B091CF0226B5A89B05C02F3F06
:1006900019F00196A11DB11D3FBFBA2FA92F982FA8
:1006A0008827BC01CD01620F711D811D911D42E0A3
:1006B000660F771F881F991F4A95D1F708958F926B
:1006C0009F92AF92BF92CF92DF92EF92FF924B0137
:1006D0005C010E943A036B017C010E943A036C1991
:1006E0007D098E099F09683E734081059105A8F335
:1006F00021E0821A9108A108B10888EEC80E83E0B3
:10070000D81EE11CF11C81149104A104B10429F745
:10071000FF90EF90DF90CF90BF90AF909F908F9021
:1007200008958F929F92AF92BF92FF920F931F9363
:10073000CF93DF93FC01F0808FE28F1508F44AC05D
:10074000828108E512E0081B110987FD1395000F4F
:10075000111F000F111F8181C8E8D0E0C81BD1090B
:1007600087FDD395CC0FDD1FCC0FDD1F4E010D2E65
:10077000000CAA08BB089801012E000C440B550B75
:10078000281939094A095B09DB010E94A80A24EBF0
:1007900030E040E050E00E947E0A820E931EA41ECC
:1007A000B51E8C169D062CF0E801801691060CF4FF
:1007B000E4012297CC0FDD1F2FB7F8948F2D90E026
:1007C000FC01EE0FFF1FE80FF91FE95CFD4FD2831C
:1007D000C1832FBFDF91CF911F910F91FF90BF90E9
:1007E000AF909F908F9008951F93CF93DF93EC016C
:1007F000162F8881803308F04DC0862F0E945B0140
:100800008881282F30E0F901EE0FFF1FE20FF31F60
:10081000E95CFD4F1F736081607C612B60831982EE
:100820001A822CE0622F0E941D0D829FB0011124BC
:1008300030E020E0AB01420F531FFA01EE0FFF1F23
:10084000E40FF51FE95CFD4F908196FD16C02F5F08
:100850003F4F2C30310571F7813009F5109280003F
:1008600082E0809381001092850010928400B19AFA
:1008700080916F00826080936F00E8818E2F90E0FE
:10088000FC01EE0FFF1FE80FF91FE95CFD4F8081AF
:10089000806480838881DF91CF911F910895823099
:1008A00061F4109290008093910010929500109244
:1008B000940088BB80937100E0CF833069F410927C
:1008C000A00082E08093A1001092A5001092A400E5
:1008D00089BB80937200D1CF8111CFCF10922001BC
:1008E00082E08093210110922501109224018ABB9D
:1008F00080937300C2CFAF92BF92CF92DF92EF92FC
:10090000FF920F931F93CF93DF936B017A01EC015A
:10091000CE5CDD4F28813CE0389F8001399F100D6F
:100920001124A0903602B12C27FF1FC0FB011182B9
:10093000108288818F5F888388819801280F311DFC
:1009400087FD3A95F6012A153B051CF488818C3009
:10095000C4F180819181049680349C4908F473C06D
:10096000F60180819181049670C088819801280FDA
:10097000311D87FD3A952A153B05DCF68881A801D3
:10098000480F511D87FD5A95FA01EE0FFF1FE40F26
:10099000F51FE95CFD4F808186FFCBCF8881F80190
:1009A000E80FF11D87FDFA95CF01EE0FFF1FE80F4D
:1009B000F91FE95CFD4F808160E08F730E94AE02F9
:1009C000B8CF808191812881A801420F511D27FD58
:1009D0005A959A01FA01EE0FFF1FE20FF31FE95C2F
:1009E000FD4F21813281820F931FF7019183808314
:1009F00088819801280F311D87FD3A95F901EE0F86
:100A0000FF1FE20FF31FE95CFD4F808186FF22C0CC
:100A10008881080F111D87FD1A95F801EE0FFF1F41
:100A2000E00FF11FE95CFD4F808161E08F73DF9182
:100A3000CF911F910F91FF90EF90DF90CF90BF90DB
:100A4000AF900C94AE0280E49CE9F701918380831F
:100A50008FEF8883DF91CF911F910F91FF90EF90DF
:100A6000DF90CF90BF90AF9008958EBD00000DB481
:100A700007FEFDCF8EB50895FC0101900020E9F737
:100A80003197AF01481B590BBC018AED92E00C94E1
:100A90007A018F929F92AF92BF920F931F93CF9341
:100AA000DF93CDB7DEB7A1970FB6F894DEBF0FBEC8
:100AB000CDBF19A2423008F44AE08E010F5D1F4FEE
:100AC000842E912CB12CA12CA50194010E94B00A76
:100AD000E62FB901CA01EA30F4F4E05DD801EE93E3
:100AE0008D01232B242B252B79F790E080E01097A4
:100AF00019F0CD010E943C05A1960FB6F894DEBF17
:100B00000FBECDBFDF91CF911F910F91BF90AF90DE
:100B10009F908F900895E95CE1CFCF93DF93682F8A
:100B20008AED92E00E941002EC0182E192E00E94C4
:100B30003C058C0F9D1FDF91CF9108951F920F925E
:100B40000FB60F9211240BB60F922F933F934F9332
:100B50005F936F937F938F939F93AF93BF93EF9325
:100B6000FF938AED92E00E94EE01FF91EF91BF9119
:100B7000AF919F918F917F916F915F914F913F9135
:100B80002F910F900BBE0F900FBE0F901F901895D6
:100B90001F920F920FB60F9211240BB60F922F9344
:100BA0008F939F93EF93FF93E091EA02F091EB0212
:100BB0008081E091F002F091F10282FD1DC09081F0
:100BC0008091F3028F5F8F732091F402821741F0BE
:100BD000E091F302F0E0E652FD4F958F8093F3022F
:100BE000FF91EF919F918F912F910F900BBE0F90DE
:100BF0000FBE0F901F9018958081F2CF1F920F9219
:100C00000FB60F9211242F933F938F939F93AF931F
:100C1000BF938091C8029091C902A091CA02B0917D
:100C2000CB023091C70223E0230F2D3758F50196F0
:100C3000A11DB11D2093C7028093C8029093C902E1
:100C4000A093CA02B093CB028091CC029091CD02C6
:100C5000A091CE02B091CF020196A11DB11D80934B
:100C6000CC029093CD02A093CE02B093CF02BF915D
:100C7000AF919F918F913F912F910F900FBE0F9049
:100C80001F90189526E8230F0296A11DB11DD2CF03
:100C90001F920F920FB60F9211240BB60F922F9343
:100CA0003F934F935F936F937F938F939F93AF93F4
:100CB000BF93EF93FF9348E251E064E271E090E06C
:100CC00080E00E947B04FF91EF91BF91AF919F91D3
:100CD0008F917F916F915F914F913F912F910F90E5
:100CE0000BBE0F900FBE0F901F9018951F920F9282
:100CF0000FB60F9211240BB60F922F933F934F9381
:100D00005F936F937F938F939F93AF93BF93EF9373
:100D1000FF9348EA50E064EA70E083E090E00E94CC
:100D20007B04FF91EF91BF91AF919F918F917F9144
:100D30006F915F914F913F912F910F900BBE0F904C
:100D40000FBE0F901F9018951F920F920FB60F9223
:100D500011240BB60F922F933F934F935F936F9392
:100D60007F938F939F93AF93BF93EF93FF9348E944
:100D700050E064E970E082E090E00E947B04FF9123
:100D8000EF91BF91AF919F918F917F916F915F9103
:100D90004F913F912F910F900BBE0F900FBE0F9070
:100DA0001F9018951F920F920FB60F9211240BB639
:100DB0000F922F933F934F935F936F937F938F93F4
:100DC0009F93AF93BF93EF93FF9348E850E064E89D
:100DD00070E081E090E00E947B04FF91EF91BF9171
:100DE000AF919F918F917F916F915F914F913F91C3
:100DF0002F910F900BBE0F900FBE0F901F90189564
:100E0000FC0190913602903398F481E0890F809331
:100E100036029083892F90E0FC01EE0FFF1FE80F50
:100E2000F91FE95CFD4F88EB9BE092838183089575
:100E30008FEF80830895EAEDF2E01382128288EE4C
:100E400093E0A0E0B0E084839583A683B78384E039
:100E500092E09183808385EC90E09587848784EC91
:100E600090E09787868780EC90E0918B808B81EC77
:100E700090E0938B828B82EC90E0958B848B86EC58
:100E800090E0978B868B118E128E138E148E8DE7C9
:100E900093E00E9400078AE793E00E94000787E73B
:100EA00093E00C940007789484B5826084BD84B587
:100EB000816084BD85B5826085BD85B5816085BD55
:100EC00080916E00816080936E001092810080910D
:100ED0008100826080938100809181008160809395
:100EE0008100809180008160809380008091B100BA
:100EF00084608093B1008091B00081608093B000E5
:100F00008091910082608093910080919100816036
:100F100080939100809190008160809390008091F7
:100F2000A10082608093A1008091A10081608093E4
:100F3000A1008091A00081608093A0008091210198
:100F40008260809321018091210181608093210141
:100F50008091200181608093200180917A008460DB
:100F600080937A0080917A00826080937A008091E9
:100F70007A00816080937A0080917A008068809303
:100F80007A001092C100CFB7F8948091D0028111FD
:100F900024C0E7EFF1E08491EDE3F2E09491E82FD3
:100FA000F0E0EE0FFF1FE855FE4FA591B491EC91D4
:100FB000E92321F461E085E30E94AE0285E30E940B
:100FC0005B018CB580618CBD8CB580648CBD84E385
:100FD0000E945B0183E30E945B018091D0028F5FDE
:100FE0008093D002CFBFE091EA02F091EB0282E061
:100FF0008083E091E602F091E7021082E091E8023E
:10100000F091E9028FEC80831092F202E091EE02FF
:10101000F091EF0286E08083E091EC02F091ED0226
:10102000808180618083E091EC02F091ED0280810B
:1010300088608083E091EC02F091ED02808180680D
:101040008083E091EC02F091ED0280818F7D8083BE
:101050008FE00E945B0180E10E945B0161E08FE014
:101060000E94AE0261E080E10E94AE0280917B00AE
:10107000877F80937B0080E480937C0080917A005E
:10108000806480937A0080917A0086FDFCCF809105
:1010900078006091790024EB30E03093D9022093FE
:1010A000D802762F682F072E000C880B990B0E9410
:1010B000F60B20E030E04AEF53E40E94AB0C20E056
:1010C00030EC4FE754E40E94530B20E030E040E264
:1010D00051E40E94530B6093D4027093D502809325
:1010E000D6029093D70262E070E08DE793E00E9411
:1010F000F40364EB70E08DE793E00E94910363E0FA
:1011000070E08AE793E00E94F40364EB70E08AE702
:1011100093E00E94910364E070E087E793E00E940F
:10112000F40364EB70E087E793E00E94910380E0B2
:101130000E945B014AE0842E912CC4EBD0E002E3D4
:1011400010E0AA24A394B12C8091D8029091D902E6
:10115000181619060CF0F5C0B4010E94290D072ECF
:10116000000C880B990B0E94F60B2091D402309151
:10117000D5024091D6025091D7020E94E20A6B013B
:101180007C01C092D402D092D502E092D602F092B5
:10119000D70220E030E040EF52E40E94A60C18167F
:1011A0000CF040C0B092D302A092D20261E080E085
:1011B0000E94AE021092D9021092D80270E060E054
:1011C0008DE793E00E94910370E060E08AE793E08E
:1011D0000E94910370E060E087E793E00E94910332
:1011E00060E08FE00E94AE028091D2029091D30223
:1011F00035E1C32E32E0D32E019709F052C02BE126
:10120000C22E22E0D22EF601F1906F01F092D102AF
:10121000FF2009F454C08F2D0E9435058F2D0E94A8
:101220008D05F1CF20E030E040E752E4C701B60180
:101230000E94A60C60E01816F4F480E00E94AE0252
:101240001093D9020093D80262E370E08DE793E037
:101250000E94910362E370E08AE793E00E949103A9
:1012600062E370E087E793E00E9491031092D3025B
:101270001092D202B5CF80E00E94AE02D093D90284
:10128000C093D80264EB70E08DE793E00E94910375
:1012900064EB70E08AE793E00E94910364EB70E0F6
:1012A000E1CFF601F1906F01F092D102FF2039F009
:1012B0008F2D0E9435058F2D0E948D05F2CF61E0A4
:1012C0008FE00E94AE0264E170E080E090E00E9456
:1012D0005F0360E080E10E94AE028091D2029091B3
:1012E000D302019791F095E1C92E92E0D92EF60133
:1012F000F1906F01F092D102FF20C9F08F2D0E9472
:1013000035058F2D0E948D05F2CF8BE1C82E82E02E
:10131000D82EF601F1906F01F092D102FF2039F042
:101320008F2D0E9435058F2D0E948D05F2CF61E033
:1013300080E10E94AE0264E170E080E090E00E94F3
:101340005F038091D8029091D902892B21F560ED3D
:1013500077E080E090E00E945F031092D402109248
:10136000D5021092D6021092D702D093D902C09320
:10137000D80264EB70E08DE793E00E94910364EB88
:1013800070E08AE793E00E94910364EB70E087E7E6
:1013900093E00E949103C090D402D090D502E090D7
:1013A000D602F090D702A7019601C701B6010E94AC
:1013B000180D882389F086E292E00E943C0582E1C4
:1013C00092E00E943C0568EC70E080E090E00E94B2
:1013D0005F030E947D02B8CE26013701E89477F8BA
:1013E0002FEF3FEF4FE75FE7C301B2010E94180DF7
:1013F00081110DC02FEF3FEF4FE75FE7C301B2014F
:101400000E944E0B18161CF48AE292E0D6CF2FEF02
:101410003FEF4FE75FE4C701B6010E94A60C181624
:101420001CF48EE292E0C9CF2FEF3FEF4FE75FEC65
:10143000C701B6010E944E0B87FDF3CF20E030E0DC
:10144000A901C701B6010E944E0B87FF09C06DE2DA
:101450008AED92E00E941002F7FAF094F7F8F09407
:101460002AE037ED43EA5BE3C701B6010E94E20AD6
:101470002B013C010E94C50B6B017C010E94F40B07
:101480009B01AC01C301B2010E94E10A2B013C01A6
:101490004AE0C701B6010E9449056EE28AED92E07A
:1014A0000E94100220E030E040E251E4C301B201AA
:1014B0000E94AB0C2B013C010E94C50B6B01F12C6F
:1014C000E12C4AE0C701B6010E944905C701B601F7
:1014D0000E94F40B9B01AC01C301B2010E94E10A1E
:1014E00020E030E040E251E40E94AB0C0E94C50BCA
:1014F00090E080E04AE00E94490561CF052E97FB0D
:101500001EF400940E94950A57FD07D00E94B00A6D
:1015100007FC03D04EF40C94950A509540953095F5
:1015200021953F4F4F4F5F4F08959095809570954F
:1015300061957F4F8F4F9F4F08950E94D20AA59FBC
:10154000900DB49F900DA49F800D911D11240895BE
:10155000B7FF0C949D0A0E949D0A821B930B08956D
:10156000A1E21A2EAA1BBB1BFD010DC0AA1FBB1FA7
:10157000EE1FFF1FA217B307E407F50720F0A21B19
:10158000B30BE40BF50B661F771F881F991F1A9486
:1015900069F760957095809590959B01AC01BD01B0
:1015A000CF010895A29FB001B39FC001A39F700D0A
:1015B000811D1124911DB29F700D811D1124911D5B
:1015C00008955058BB27AA270E94F90A0C946C0C66
:1015D0000E945E0C38F00E94650C20F039F49F3FA9
:1015E00019F426F40C945B0C0EF4E095E7FB0C94D4
:1015F000550CE92F0E947D0C58F3BA176207730748
:101600008407950720F079F4A6F50C949F0C0EF44E
:10161000E0950B2EBA2FA02D0B01B90190010C0102
:10162000CA01A0011124FF27591B99F0593F50F41A
:10163000503E68F11A16F040A22F232F342F442772
:10164000585FF3CF469537952795A795F04053956A
:10165000C9F77EF41F16BA0B620B730B840BBAF03A
:101660009150A1F0FF0FBB1F661F771F881FC2F7A5
:101670000EC0BA0F621F731F841F48F487957795B9
:101680006795B795F7959E3F08F0B0CF9395880F73
:1016900008F09927EE0F9795879508950E94310CD1
:1016A00008F481E008950E94670B0C946C0C0E9472
:1016B000650C58F00E945E0C40F029F45F3F29F061
:1016C0000C94550C51110C94A00C0C945B0C0E94C2
:1016D0007D0C68F39923B1F3552391F3951B550BBA
:1016E000BB27AA2762177307840738F09F5F5F4FF5
:1016F000220F331F441FAA1FA9F335D00E2E3AF034
:10170000E0E832D091505040E695001CCAF72BD04B
:10171000FE2F29D0660F771F881FBB1F261737079C
:101720004807AB07B0E809F0BB0B802DBF01FF27CE
:1017300093585F4F3AF09E3F510578F00C94550C4A
:101740000C94A00C5F3FE4F3983ED4F38695779514
:101750006795B795F7959F5FC9F7880F911D969587
:10176000879597F90895E1E0660F771F881FBB1FE3
:10177000621773078407BA0720F0621B730B840B90
:10178000BA0BEE1F88F7E09508950E94850C88F04B
:101790009F5798F0B92F9927B751B0F0E1F0660F35
:1017A000771F881F991F1AF0BA95C9F714C0B13076
:1017B00091F00E949F0CB1E008950C949F0C672F4C
:1017C000782F8827B85F39F0B93FCCF386957795A5
:1017D0006795B395D9F73EF490958095709561958E
:1017E0007F4F8F4F9F4F0895E89409C097FB3EF4B9
:1017F00090958095709561957F4F8F4F9F4F99235E
:10180000A9F0F92F96E9BB279395F69587957795DB
:101810006795B795F111F8CFFAF4BB0F11F460FF9B
:101820001BC06F5F7F4F8F4F9F4F16C0882311F0F3
:1018300096E911C0772321F09EE8872F762F05C007
:10184000662371F096E8862F70E060E02AF09A95A2
:10185000660F771F881FDAF7880F9695879597F997
:101860000895990F0008550FAA0BE0E8FEEF161631
:101870001706E807F907C0F012161306E407F50784
:1018800098F0621B730B840B950B39F40A2661F0F8
:10189000232B242B252B21F408950A2609F4A1409B
:1018A000A6958FEF811D811D089597F99F6780E8A8
:1018B00070E060E008959FEF80EC089500240A94A2
:1018C0001616170618060906089500240A9412161B
:1018D0001306140605060895092E0394000C11F44E
:1018E000882352F0BB0F40F4BF2B11F460FF04C0FB
:1018F0006F5F7F4F8F4F9F4F089557FD9058440F54
:10190000551F59F05F3F71F04795880F97FB991F5E
:1019100061F09F3F79F0879508951216130614061B
:10192000551FF2CF4695F1DF08C0161617061806A8
:10193000991FF1CF86957105610508940895E89483
:10194000BB2766277727CB0197F908950E94310CB2
:1019500008F48FEF08950E94BE0C0C946C0C0E944A
:101960005E0C38F00E94650C20F0952311F00C9469
:10197000550C0C945B0C11240C94A00C0E947D0C53
:1019800070F3959FC1F3950F50E0551F629FF001D2
:10199000729FBB27F00DB11D639FAA27F00DB11DEB
:1019A000AA1F649F6627B00DA11D661F829F222774
:1019B000B00DA11D621F739FB00DA11D621F839FFB
:1019C000A00D611D221F749F3327A00D611D231FD1
:1019D000849F600D211D822F762F6A2F11249F571F
:1019E00050409AF0F1F088234AF0EE0FFF1FBB1F22
:1019F000661F771F881F91505040A9F79E3F5105E1
:101A000080F00C94550C0C94A00C5F3FE4F3983ECE
:101A1000D4F3869577956795B795F795E7959F5F8A
:101A2000C1F7FE2B880F911D9695879597F908951C
:101A30000E94310C880B990B0895991B79E004C022
:101A4000991F961708F0961B881F7A95C9F78095FD
:101A5000089597FB072E16F4009407D077FD09D060
:101A60000E94450D07FC05D03EF4909581959F4F4F
:101A70000895709561957F4F0895EE0FFF1F881FA1
:101A80008BBF0790F691E02D1994AA1BBB1B51E167
:101A900007C0AA1FBB1FA617B70710F0A61BB70BDE
:101AA000881F991F5A95A9F780959095BC01CD0183
:061AB0000895F894FFCF39
:101AB6000000000010027A01A7015D02D801B601FC
:101AC600CA010D0A00736166650D00656D65726772
:101AD600656E63790D006E616E00696E66006F76E5
:021AE600660098
:00000001FF
