:100000000C9428010C9459010C9459010C94590139
:100010000C9459010C9459010C9459010C945901F8
:100020000C9459010C9459010C9459010C945901E8
:100030000C9459010C9459010C9459010C945901D8
:100040000C9459010C9459010C9459010C945901C8
:100050000C9459010C9459010C9459010C940A0404
:100060000C9454040C94D4030C94AA030C945901DA
:100070000C9459010C9459010C9459010C94590198
:100080000C9459010C9459010C9459010C94590188
:100090000C9459010C9459010C9459010C94590178
:1000A0000C9459010C9459010C9459010C94590168
:1000B0000C9459010C9459010C9459010C94590158
:1000C0000C9459010C9459010C9459010C94590148
:1000D0000C9459010C9459010C9459010C94590138
:1000E0000C9459010C94E0010C943E020C94C9014B
:1000F0000C94E5020C94C5010C94F2010C94DC0103
:100100000C94E4010C94CC010C94D6010C94A6013F
:100110000C9498020C94FC010C94BD010C94EE011B
:100120000C94F8010C94C1010C9402020C94EA01A5
:100130000C9460020C94D2010C9452020C944C0565
:100140000C942F020C94AB0100000A0B02090C0D59
:100150000E0807030401000000000000000000007A
:10016000000000000000000000000000000000008F
:10017000000000001211100000000000000000004C
:10018000000000000000000000000000000000006F
:100190002200250028002B002E003100340002012F
:1001A0000000050108010B010000210024002700C8
:1001B0002A002D0030003300010100000401070176
:1001C0000A010505050507050808080802020202DC
:1001D0000A0A0808040404040101010101010101E3
:1001E0000303030303030303040707070C0C0C0CAE
:1001F0000C0C0C0C02020202060606060606060697
:100200000B0B0B0B0B0B0B0B010210202008081023
:100210002040102040800201020108040201010276
:10022000040810204080804020100804020180044F
:1002300002018040201008040201080402010102AA
:1002400004081020408001020408102040804C0562
:1002500011241FBECFEFD1E2DEBFCDBF00E00CBF47
:1002600012E0A0E0B2E0E6E0FBE000E00BBF02C07D
:1002700007900D92A432B107D9F722E0A4E2B2E0D0
:1002800001C01D92AB3CB207E1F711E0C8E2D1E03A
:1002900000E006C021970109802FFE010E94790528
:1002A000C732D10780E00807A9F70E9498040C9490
:1002B00081050C94000090E0FC01E85FFD4F249163
:1002C0008E539E4FFC018491882399F090E0880F13
:1002D000991FFC01E855FE4FA591B491FC01E2572E
:1002E000FE4F859194918FB7F894EC91E22BEC93AB
:1002F0008FBF0895382FEAE4F1E08491EAE0F2E05C
:100300002491E4ECF1E09491992309F435C0882319
:1003100011F181508231F8F4E82FF0E08827EC5693
:10032000FE4F8F4F0C947905C501C901A601BD018F
:10033000C101AB01CC01D201D601DC01E001E40135
:10034000EA01EE01AB01F201F801FC0180918000AD
:100350008F7780938000E92FF0E0EE0FFF1FE257C8
:10036000FE4FA591B4918FB7F894EC91311148C02C
:1003700020952E232C938FBF0895809180008F7D30
:10038000E8CF80918000877FE4CF84B58F7784BDEC
:10039000E2CF84B58F7DFBCF8091B0008F778093C3
:1003A000B000D9CF8091B0008F7DF9CF80919000BF
:1003B0008F7780939000CFCF809190008F7DF9CF81
:1003C00080919000877FF5CF8091A0008F778093F8
:1003D000A000C1CF8091A0008F7DF9CF8091A000B7
:1003E000877FF5CF809120018F7780932001B3CF55
:1003F000809120018F7DF9CF80912001877FF5CFFB
:100400002E2BB8CFAF92BF92CF92DF92EF92FF9296
:100410000F931F93CF93DF936C017B018B01040F2C
:10042000151FEB015E01AE18BF08C017D10759F0C8
:100430006991D601ED91FC910190F081E02DC6010A
:100440001995892B79F7C501DF91CF911F910F91F4
:10045000FF90EF90DF90CF90BF90AF900895FC0198
:10046000538D448D252F30E0842F90E0821B930B19
:10047000541710F0CF96089501970895FC01918DBF
:10048000828D981761F0A28DAE0FBF2FB11D5D96C2
:100490008C91928D9F5F9F73928F90E008958FEF64
:1004A0009FEF0895FC01918D828D981731F0828D18
:1004B000E80FF11D858D90E008958FEF9FEF08956F
:1004C000FC01918D228D892F90E0805C9F4F821BD3
:1004D00091098F73992708958EE292E00E9460023D
:1004E00021E0892B09F420E0822F0895FC01A48DDE
:1004F000A80FB92FB11DA35ABF4F2C91848D90E046
:1005000001968F739927848FA689B7892C93A08928
:10051000B1898C91837080648C93938D848D9813B2
:1005200006C00288F389E02D80818F7D8083089545
:10053000EF92FF920F931F93CF93DF93EC0181E033
:10054000888F9B8D8C8D98131AC0E889F9898081DA
:1005500085FF15C09FB7F894EE89FF896083E8890D
:10056000F98980818370806480839FBF81E090E0FF
:10057000DF91CF911F910F91FF90EF900895F62E8C
:100580000B8D10E00F5F1F4F0F731127E02E8C8D26
:100590008E110CC00FB607FCFACFE889F98980816B
:1005A00085FFF5CFCE010E947602F1CFEB8DEC0FE7
:1005B000FD2FF11DE35AFF4FF0829FB7F8940B8F88
:1005C000EA89FB8980818062CFCFCF93DF93EC01F2
:1005D000888D8823B9F0AA89BB89E889F9898C912B
:1005E00085FD03C0808186FD0DC00FB607FCF7CFE7
:1005F0008C9185FFF2CF808185FFEDCFCE010E94E7
:100600007602E9CFDF91CF91089580E090E0892BC9
:1006100029F00E946C0281110E94000080E090E0AD
:10062000892B49F080E090E0892B29F00E9400009E
:1006300081110E94000080E090E0892B49F080E069
:1006400090E0892B29F00E94000081110E94000097
:1006500080E090E0892B49F080E090E0892B29F040
:100660000E94000081110C94000008953FB7F89497
:1006700080912A0290912B02A0912C02B0912D0220
:1006800026B5A89B05C02F3F19F00196A11DB11DED
:100690003FBFBA2FA92F982F8827BC01CD01620F29
:1006A000711D811D911D42E0660F771F881F991FE4
:1006B0004A95D1F708958F929F92AF92BF92CF92B1
:1006C000DF92EF92FF924B015C010E9436036B01B7
:1006D0007C010E9436036C197D098E099F09683ED2
:1006E000734081059105A8F321E0821A9108A108C1
:1006F000B10888EEC80E83E0D81EE11CF11C8114FD
:100700009104A104B10429F7FF90EF90DF90CF90FE
:10071000BF90AF909F908F900895CF93DF93FC018F
:1007200001900020E9F73197AF01481B590BBC013C
:100730008EE292E00E940202EC0142E050E062E1AF
:1007400072E08EE292E00E9402028C0F9D1FDF9108
:10075000CF9108951F920F920FB60F9211240BB6EE
:100760000F922F933F934F935F936F937F938F934A
:100770009F93AF93BF93EF93FF938EE292E00E941B
:100780007602FF91EF91BF91AF919F918F917F91F1
:100790006F915F914F913F912F910F900BBE0F90F2
:1007A0000FBE0F901F9018951F920F920FB60F92C9
:1007B00011240BB60F922F938F939F93EF93FF9378
:1007C000E0913E02F0913F028081E0914402F0917D
:1007D000450282FD1DC09081809147028F5F8F731B
:1007E00020914802821741F0E0914702F0E0E25D7B
:1007F000FD4F958F80934702FF91EF919F918F91CD
:100800002F910F900BBE0F900FBE0F901F90189559
:100810008081F2CF1F920F920FB60F9211242F9367
:100820003F938F939F93AF93BF93809126029091B4
:100830002702A0912802B09129023091250223E0DD
:10084000230F2D3758F50196A11DB11D20932502C8
:100850008093260290932702A0932802B093290246
:1008600080912A0290912B02A0912C02B0912D022E
:100870000196A11DB11D80932A0290932B02A09393
:100880002C02B0932D02BF91AF919F918F913F9118
:100890002F910F900FBE0F901F90189526E8230FF1
:1008A0000296A11DB11DD2CF1F920F920FB60F92CB
:1008B00011240BB60F922F933F934F935F936F9337
:1008C0007F938F939F93AF93BF93EF93FF938EB5D7
:1008D000833701F585E192E00E948D0380E00E945C
:1008E0007A0168EC70E080E090E00E945B03FF9189
:1008F000EF91BF91AF919F918F917F916F915F9198
:100900004F913F912F910F900BBE0F900FBE0F9004
:100910001F9018958AE192E00E948D0381E00E9469
:100920007A0164EF71E080E090E00E945B03D9CF30
:10093000789484B5826084BD84B5816084BD85B5BA
:10094000826085BD85B5816085BD80916E008160C6
:1009500080936E001092810080918100826080936C
:10096000810080918100816080938100809180006E
:100970008160809380008091B10084608093B10099
:100980008091B00081608093B0008091910082607E
:10099000809391008091910081608093910080917B
:1009A00090008160809390008091A100826080938C
:1009B000A1008091A10081608093A1008091A0009E
:1009C00081608093A0008091210182608093210149
:1009D00080912101816080932101809120018160BB
:1009E0008093200180917A00846080937A008091C6
:1009F0007A00826080937A0080917A00816080938F
:100A00007A0080917A00806880937A001092C10009
:100A1000E0913E02F0913F0282E08083E0913A0251
:100A2000F0913B021082E0913C02F0913D028FEC8C
:100A3000808310924602E0914202F091430286E0E8
:100A40008083E0914002F091410280818061808347
:100A5000E0914002F0914102808188608083E091C2
:100A60004002F0914102808180688083E0914002E1
:100A7000F091410280818F7D808382E30E945B013F
:100A80008CB580648CBD8CB580688CBD82E00E9482
:100A90005B010E940503FDCFEEE2F2E013821282B9
:100AA00088EE93E0A0E0B0E084839583A683B783CB
:100AB00084E092E09183808385EC90E09587848741
:100AC00084EC90E09787868780EC90E0918B808B18
:100AD00081EC90E0938B828B82EC90E0958B848B01
:100AE00086EC90E0978B868B118E128E138E148E6F
:100AF0000895EE0FFF1F881F8BBF0790F691E02D22
:060B00001994F894FFCFE8
:100B060000000000980202022F02E50260023E0287
:100B160052020D0A007361666500656D6572676550
:040B26006E63790081
:00000001FF
